:100000000A128A11D12FFF1B0D2883137F18831723
:100010000008840A0319FF0A080000308A00040857
:10002000840A8207003453346D346134723474347A
:100030002034533468346F347034703469346E341F
:10004000673400344934743465346D3420345234A8
:1000500065346D346F34763465346434213400345F
:100060003134423430343034323445344134433422
:10007000353439344334303400343134423430345C
:100080003034323445344234313430343634383418
:100090003234003431344234303430343234463443
:1000A0003034313439343734413432340034553417
:1000B0006E346B346E346F3477346E34203449349C
:1000C000743465346D3400344334613472347434C0
:1000D0002034503472346F346A3465346334743489
:1000E00000344934743465346D342034413464341C
:1000F0006434653464342134003454346F347434DB
:1001000061346C343A342034523473342E34003435
:100110005334633461346E34203449347434653478
:100120006D347334003446346134633465342034C0
:100130005734613473346834003442346F34743467
:1001400074346C346534003425342E3432346634DF
:10015000003453346F3461347034003469346E3495
:10016000663400346E3461346E3400340800F200BA
:100170007208F1000130F007FF30700784000A12A6
:100180008A110D200A128A11FF00710884000130C3
:10019000F1077F08831780000008031DD028D128AD
:1001A000BA2808003F3083160313CC008030CB0000
:1001B0000030CA000030C900B001B1014808F300A6
:1001C0004708F2004608F1004508F0000030F7004B
:1001D0000030F6000030F5000030F4000A168A15F1
:1001E0007F260A128A110318F628F728082B0829F7
:1001F000831603133708CC003608CB003508CA0035
:100200003408C9000130B0070318B10A0030B10743
:10021000413083120313A3002030A2000030A1005C
:100220000030A000831603134C0883120313A700A9
:10023000831603134B0883120313A60083160313BC
:100240004A0883120313A500831603134908831277
:100250000313A4000A128A15BB240A128A118312FE
:100260000313230883160313B70083120313220812
:1002700083160313B6008312031321088316031396
:10028000B50083120313200883160313B400450836
:1002900083120313C6008316031346088312031345
:1002A000C70083160313470883120313C80083167D
:1002B0000313480883120313C90083160313340879
:1002C00083120313C602831603133508031C350F6C
:1002D0006A296D2983120313C70283160313360894
:1002E000031C360F7429772983120313C80283165F
:1002F00003133708031C370F7E2981298312031348
:10030000C90283160313831203134908F300480834
:10031000F2004708F1004608F0000A168A15D124B9
:100320000A128A11F31BA4297308031DA529720858
:10033000031DA5297108031DA52902307002031DA4
:10034000A129031CA429A529F8288316031337081B
:1003500083120313B80083160313360883120313A2
:10036000B70083160313350883120313B6008316F0
:100370000313340883120313B500831603134808CC
:1003800083120313BC00831603134708831203135D
:10039000BB0083160313460883120313BA008316A7
:1003A0000313450883120313B9000A168A117F202C
:1003B0000A128A11031CDD29DE29F828831603138B
:1003C000450883120313C6008316031346088312DD
:1003D0000313C70083160313470883120313C800CF
:1003E00083160313480883120313C90083160313EB
:1003F000490883120313C602831603134A08031C19
:100400004A0F032A062A83120313C7028316031313
:100410004B08031C4B0F0D2A102A83120313C8022A
:10042000831603134C08031C4C0F172A1A2A831235
:100430000313C90283160313831203134908F3003D
:100440004808F2004708F1004608F0000A168A152D
:10045000D1240A128A11F31B3E2A7308031D3D2A78
:100460007208031D3D2A7108031D3D2A02307002E7
:10047000031D3A2A03183D2A3E2ACF2A8316031366
:100480004C08C8004B08C7004A08C6004908C50008
:10049000082B4130F3002030F2000030F100003032
:1004A000F000831603134C08F7004B08F6004A08C7
:1004B000F5004908F4000A128A1582200A128A11EE
:1004C000730883160313CC007208CB007108CA00AE
:1004D0007008C900FF30B0070318B10AFF30B10738
:1004E000450883120313C6008316031346088312BC
:1004F0000313C70083160313470883120313C800AE
:1005000083160313480883120313C90083160313C9
:10051000490883120313C602831603134A08031CF7
:100520004A0F932A962A83120313C70283160313D2
:100530004B08031C4B0F9D2AA02A83120313C802E9
:10054000831603134C08031C4C0FA72AAA2A8312F4
:100550000313C90283160313831203134908F3001C
:100560004808F2004708F1004608F0000A168A150C
:10057000D1240A128A11F31BCE2A7308031DCD2A37
:100580007208031DCD2A7108031DCD2A02307002A6
:10059000031DCA2A0318CD2ACE2ACF2A3E2A831643
:1005A0000313480883120313B80083160313470884
:1005B00083120313B7008316031346088312031331
:1005C000B60083160313450883120313B500831680
:1005D00003134C0883120313BC00831603134B0848
:1005E00083120313BB00831603134A0883120313F9
:1005F000BA0083160313490883120313B9000A16BD
:100600008A117F200A128A11031C072B082B492A02
:1006100083120313450883160313A9002908AA00AF
:1006200083120313EC1B152B162B212B6C0883163E
:100630000313A300831203136B0883160313A20092
:10064000272B063083160313A2000030A3002308D3
:10065000AE002208AD000130AD070318AE0A00302D
:10066000AE0766302A06031D362B372B512BB11FE0
:100670003A2B3B2B452B3F30CC008030CB00003059
:10068000CA000030C900B001B10167302906031962
:100690004A2B4B2B512B3008AD070318AE0A3108FB
:1006A000AE07B801B9014808BD004708BC004608BC
:1006B000BB004508BA004C08B7004B08B6004A0812
:1006C000B5004908B4004C2C831603134C08F30002
:1006D0004B08F2004A08F1004908F0003D08F70015
:1006E0003C08F6003B08F5003A08F4000A128A15A7
:1006F00082200A128A11730883120313B000720851
:10070000AF007108AE007008AD000A168A117C2394
:100710000A128A1183120313300883160313C100CF
:10072000831203132F0883160313C00083120313CD
:100730002E0883160313BF00831203132D0883169C
:100740000313BE004108F3004008F2003F08F10027
:100750003E08F0000A128A150C200A128A1171084C
:1007600083160313AC007008AB004C08831203130C
:10077000A700831603134B0883120313A6008316E6
:1007800003134A0883120313A500831603134908B1
:1007900083120313A4008316031341088312031367
:1007A000A30083160313400883120313A2008316C9
:1007B00003133F0883120313A100831603133E089B
:1007C00083120313A0000A128A15BB240A128A118D
:1007D000831203132308B8002208B7002108B600CB
:1007E0002008B500831603133D0883120313BC00D1
:1007F000831603133C0883120313BB0083160313F1
:100800003B0883120313BA00831603133A088312BA
:100810000313B9000A168A1526250A128A118312B3
:100820000313380883160313BD008312031337081C
:1008300083160313BC0083120313360883160313B5
:10084000BB0083120313350883160313BA0041302B
:10085000F3002030F2000030F1000030F0004C08CE
:10086000F7004B08F6004A08F5004908F4000A12A0
:100870008A1582200A128A11730883160313CC008A
:100880007208CB007108CA007008C9000130B807AF
:100890000318B90A0030B9073908803A83120313E4
:1008A000C600831603132E08803A831203134602F0
:1008B000031D5E2C831603132D083802031C612CC4
:1008C000622C642B403083120313A300A030A200DB
:1008D0000030A1000030A000831603134C088312DF
:1008E0000313A700831603134B0883120313A600F8
:1008F000831603134A0883120313A50083160313F8
:10090000490883120313A4000A128A15BB240A1291
:100910008A1183120313230883160313C100831261
:100920000313220883160313C00083120313210844
:1009300083160313BF0083120313200883160313C7
:10094000BE003D0883120313B800831603133C084E
:1009500083120313B700831603133B088312031398
:10096000B600831603133A0883120313B5008316E7
:100970000313410883120313BC00831603134008BA
:1009800083120313BB00831603133F088312031360
:10099000BA00831603133E0883120313B9000A1624
:1009A0008A117F200A128A110318D72CD82CE32C25
:1009B000003083160313C1000030C0000030BF00B8
:1009C0000030BE000C2D831603133D08F3003C08D5
:1009D000F2003B08F1003A08F0004108F700400837
:1009E000F6003F08F5003E08F4000A168A157F2637
:1009F0000A128A11031CFD2CFE2C0C2D83160313E6
:100A00002B18032D042D0C2D0030C1000030C00028
:100A10000030BF000030BE00831603134108F3000E
:100A20004008F2003F08F1003E08F0004808F700D7
:100A30004708F6004608F5004508F4000A128A1532
:100A400057220A128A11730883160313BD00720815
:100A5000BC007108BB007008BA003D088312031384
:100A6000B800831603133C0883120313B7008316E0
:100A700003133B0883120313B600831603133A08CB
:100A800083120313B5004130A3002030A2000030D0
:100A9000A1000030A000831603133708831203134C
:100AA000A70083160313360883120313A6008316C8
:100AB0000313350883120313A500831603133408A8
:100AC00083120313A4000A128A15BB240A128A1186
:100AD000831203132308BC002208BB002108BA00BC
:100AE0002008B9000A168A117F200A128A11031CF5
:100AF0007A2D7B2DCE2D013083160313B0070318FA
:100B0000B10A0030B107413083120313A300203033
:100B1000A2000030A1000030A000831603133708A4
:100B200083120313A70083160313360883120313DB
:100B3000A60083160313350883120313A50083163A
:100B40000313340883120313A4000A128A15BB246A
:100B50000A128A1183120313230883160313B700A2
:100B600083120313220883160313B60083120313A0
:100B7000210883160313B50083120313200883167C
:100B80000313B40066302A06031DC72DC82DCE2DD1
:100B90000130AD070318AE0A0030AE078316031309
:100BA0003708CC003608CB003508CA003408C90025
:100BB0003108A1003008A000A801A401A501B801D6
:100BC000B901422F831603134C08F3004B08F200BF
:100BD0004A08F1004908F0003D08F7003C08F6001B
:100BE0003B08F5003A08F4000A128A1582200A121E
:100BF0008A11730883120313B0007208AF007108E2
:100C0000AE007008AD000A168A117C230A128A1100
:100C100083120313300883160313C10083120313D6
:100C20002F0883160313C000831203132E088316A4
:100C30000313BF00831203132D0883160313BE0092
:100C40004108F3004008F2003F08F1003E08F000C0
:100C50000A128A150C200A128A117108803AFF00C4
:100C600080307F02031D362E0A3070020318392EA1
:100C70003A2E502E831603134108F3004008F20069
:100C80003F08F1003E08F0000A128A150C200A12F3
:100C90008A11710883160313AC007008AB00562E3E
:100CA000093083160313AB000030AC002808031D85
:100CB0005A2E5B2E8C2EA11F5E2E5F2E8C2E43088B
:100CC000103E84002E30831780000130C3070318C4
:100CD000C40A0030C407FF30B2070318B30AFF305C
:100CE000B307A801A80A8C2E4308103E84003030B8
:100CF000831780000130C3070318C40A0030C407FB
:100D0000FF30B2070318B30AFF30B307FF30A40760
:100D10000318A50AFF30A50724082504031D912EFA
:100D2000922E742E4308103E84002B08303E831709
:100D300080000130C3070318C40A0030C407FF3025
:100D4000B2070318B30AFF30B3074C08831203132A
:100D5000A700831603134B0883120313A600831600
:100D600003134A0883120313A500831603134908CB
:100D700083120313A4008316031341088312031381
:100D8000A30083160313400883120313A2008316E3
:100D900003133F0883120313A100831603133E08B5
:100DA00083120313A0000A128A15BB240A128A11A7
:100DB000831203132308B8002208B7002108B600E5
:100DC0002008B500831603133D0883120313BC00EB
:100DD000831603133C0883120313BB00831603130B
:100DE0003B0883120313BA00831603133A088312D5
:100DF0000313B9000A168A1526250A128A118312CE
:100E00000313380883160313BD0083120313370836
:100E100083160313BC0083120313360883160313CF
:100E2000BB0083120313350883160313BA00413045
:100E3000F3002030F2000030F1000030F0004C08E8
:100E4000F7004B08F6004A08F5004908F4000A12BA
:100E50008A1582200A128A11730883160313CC00A4
:100E60007208CB007108CA007008C900FF30A007E3
:100E70000318A10AFF30A1070130B8070318B90A07
:100E80000030B9073908803A83120313C60083166D
:100E900003132E08803A831203134602031D542FB6
:100EA000831603132D0838020318572F582F672F66
:100EB000831603134408803AFF0080307F02031D2D
:100EC000632F4B304302031C662F672FE22D4F30F8
:100ED00083160313B8000030B9003808103E8400B0
:100EE000831780011030F0004408F2004308F1003D
:100EF000103083120313C6008316031343088312B2
:100F00000313C6028316031338088312031346071C
:100F10000A168A1595250A128A11831603134308A7
:100F20003802C3004408031C440A3902C4004208C2
:100F3000031D9B2F9D2F01309E2F00308312031322
:100F4000C600C701460883160313B80083120313B3
:100F5000470883160313B90042080319B02FB12FB5
:100F6000BD2FFF30C3070318C40AFF30C40743086E
:100F7000103E84004208831780003808B202390806
:100F8000031CB303B3024308103EFB003308FD000B
:100F90003208FC002F080A168A1545260A128A1103
:100FA00008008317DC30FD001C30FE00AC30FF0071
:100FB000CA3084000A168A15C2240A128A11B73070
:100FC0008400CA300A168A1597240A128A11103032
:100FD000840060300A168A1597240A128A11831336
:100FE000D6308400DF300A168A1597240A128A1137
:100FF000E901EA01EB01EC0183010A168A15CD2E05
:1010020073087204710470040319082809280B2854
:101012008030F30608000310720D730DF900790891
:10102200031D142815281E280030F3000030F2009A
:101032000030F1000030F00081287008F4007108DF
:10104200F5007208F6007308F7001F300310F70C62
:10105200F60CF50CF40CFF3E031D27287408F8006B
:10106200F217FF30F005FF30F105FF30F2050030D6
:10107200F3059630F902F91F3F2840285A287908CB
:10108200803A973E031846284728482815280130F9
:101092000310F30CF20CF10CF00CFF3E031D492877
:1010A2000130FF007F08F907031D582859284828F6
:1010B200712820307902031C5F2860286C281528CB
:1010C2000130F4000310F00DF10DF20DF30DF40BED
:1010D20063280130F9027908031D702871286128FC
:1010E20078080319752876288128F009F109F20990
:1010F200F309F00A0319F10A0319F20A0319F30AB0
:1011020008007708803983120313A4007708F800D7
:101112007807AB00F61F8E288F2890282B142B08F7
:10112200031994289528A5282B0A031D99289A2883
:10113200A2280030F7000030F6000030F500003041
:10114200F400F617F701AD280030F7000030F60082
:101152000030F5000030F40073088039FF007F088A
:10116200A4067308F8007807AC00F21FB928BA2861
:10117200BB282C142C080319BF28C028D0282C0AFD
:10118200031DC428C528CD280030F3000030F2002A
:101192000030F1000030F000F217F301D8280030DF
:1011A200F3000030F2000030F1000030F00073086C
:1011B200720471047004031DDF28E028F92800304E
:1011C200F7000030F6000030F5000030F400803007
:1011D200F6047F30F7042408FF007F08F70477083D
:1011E200F3007608F2007508F1007408F000562A40
:1011F2002B08031DFD28FE2807290030F3000030CC
:10120200F2000030F1000030F000562A2B08F800FE
:10121200F9017908FB002C087802FA00031CFB0391
:101222007A087F3EA5007B080318013E003EA60017
:101232007708A3007608A2007508A1007408A00030
:101242000030F7000030F6000030F5000030F40006
:101252000030AA000030A9000030A8000030A7002A
:10126200AC0183292C080319372938295829013060
:10127200F8000310A00DA10DA20DA30DF80B3A2941
:101282000130F8000310F40DF50DF60DF70DF80B13
:101292004329AA1F4D294E294F2974140130F80001
:1012A2000310A70DA80DA90DAA0DF80B512973085B
:1012B2002302031D662972082202031D6629710892
:1012C2002102031D662970082002031C69296A296C
:1012D2007F292A177008A0027108031C710F722956
:1012E2007329A1027208031C720F78297929A202BC
:1012F2007308031C730F7E297F29A3020130FF00AC
:101302007F08AC071A302C02031C8829892933294B
:101312002308220421042004031990299129B029C9
:101322002714B0290130F8000310F40DF50DF60D65
:10133200F70DF80B9529AA1F9F29A029A12974143A
:101342000130F8000310A70DA80DA90DAA0DF80B86
:10135200A329FF30A5070318A60AFF30A607F61F28
:10136200B329B4299329AC01AA1FB829B929D529CF
:10137200FF302705F800FF302805F900FF30290566
:10138200FA007F302A05FB007B087A04790478048E
:101392000319CC29CD29D029AC01AC0AD529741C5A
:1013A200D329D429D529CD292C080319D929DA29F9
:1013B2000B2A0130F407003003180130F507003022
:1013C20003180130F607003003180130F707771CC5
:1013D200EB29EC290B2A7408F8007508F900760845
:1013E200FA007708FB000130FC007B0DFB0CFA0CC5
:1013F200F90CF80CFC0BF6297B08F7007A08F600CA
:101402007908F5007808F4000130A5070318A60A48
:101412000030A6072608803AFF0080307F02031DB5
:10142200142AFF302502031C172A182A262AFF3005
:1014320083120313A5000030A6000030F70000302D
:10144200F6000030F5000030F40083120313260882
:10145200803AFF0080307F02031D312A01302502CD
:101462000318342A352A422A83120313A501A6013E
:101472000030F7000030F6000030F5000030F400D4
:10148200A401831203132508AB002B1C492A4A2A04
:101492004C2AF617502A7F30FF007F08F6052B08EA
:1014A200F8000310780CF700EC2808007308803964
:1014B200F800730883120313A0002007FA00F21F3A
:1014C200632A642A652A7A147A080319692A6A2A1D
:1014D2007A2A7A0A031D6E2A6F2A772A0030F300CD
:1014E2000030F2000030F1000030F000F217F3019A
:1014F200822A0030F3000030F2000030F1000030A8
:10150200F00077088039F9007908780603198A2AE9
:101512008B2A8C2A78177708A0002007F900F61F7B
:10152200932A942A952A791479080319992A9A2ACE
:10153200AA2A790A031D9E2A9F2AA72A0030F700A9
:101542000030F6000030F5000030F400F617F70125
:10155200B22A0030F7000030F6000030F50000300B
:10156200F4007A0879020318B72AB82ADE2A781F0B
:10157200BB2ABC2AC02A8030FF007F08F8067A08FE
:10158200FB007908FA007B08F9007008FB00740878
:10159200F0007B08F4007108FB007508F1007B087D
:1015A200F5007208FB007608F2007B08F60073086B
:1015B200FB007708F3007B08F700FB017908A00025
:1015C200A1012108A3007A082002A200031CA303A0
:1015D2002308803AFF0080307F02031DF22A1A306E
:1015E2002202031CF52AF62A2F2B730872047104B7
:1015F2007004031DFD2AFF2A0130002B0030FB007E
:101602000030F3000030F2000030F1000030F00052
:101612007908FA00352B7B1C0F2B102B192B7B081A
:1016220083120313A0000310200C0138FB001B2BB4
:101632000310FB0C701C1E2B1F2B202BFB170130E1
:1016420083120313A000730DF30CF20CF10CF00CD7
:10165200A00B242B0130FF007F08FA0779087A02D9
:10166200031C342B352B0C2B781B382B392B862B58
:101672007A08031D3D2B3E2B472B0030F300003030
:10168200F2000030F1000030F000BA2C7408F007CC
:10169200750803110318013E0319502BF107760850
:1016A20003110318013E0319572BF20777080311A0
:1016B2000318013E03195E2BF307731C612B622B87
:1016C2003E2C7B1C652B662B6F2B7B08831203132E
:1016D200A0000310200C0138FB00712B0310FB0C3F
:1016E200701C742B752B762BFB170130831203139E
:1016F200A000730DF30CF20CF10CF00CA00B7A2B82
:101702000130FF007F08FA073E2C7308803AFF0081
:101712007708803A7F02031D982B76087202031D18
:10172200982B75087102031D982B74087002031818
:101732009B2B9C2BF62BFF3083120313A000FF3050
:10174200A100FF30A200FF30A3007408A4007508B6
:10175200A5007608A6007708A7007008A402710801
:10176200031C710FB52BB62BA5027208031C720F56
:10177200BB2BBC2BA6027308031C730FC12BC22BFD
:10178200A7022408A00725080318250FC92BCA2B76
:10179200A10726080318260FCF2BD02BA207270854
:1017A2000318270AA3072308F3002208F2002108DE
:1017B200F1002008F0008030FF007F08F806FB09E6
:1017C200FB0A7B08031DE62BE72B042C0130F007F4
:1017D200003003180130F107003003180130F2071E
:1017E200003003180130F307042C7408F002750866
:1017F200031C750FF1027608031C760FF2027708BC
:10180200031C770FF3027308720471047004031D42
:101812000B2C0C2C3A2C7B08031D102C112C3A2C6F
:101822000030F3000030F2000030F1000030F00030
:10183200BA2C013083120313A0000310F00DF10D36
:10184200F20DF30DA00B1E2CFB1F282C292C2A2C89
:1018520070147B1C2D2C2E2C312C0314FB0D332CDD
:101862000310FB0D7A080319372C382C3A2C01305F
:10187200FA02F21F3D2C3E2C1A2CF901FB1F422CBE
:10188200432C512C7B087F390319482C492C4C2CB2
:10189200F901F90A512C701C4F2C502C512C492C57
:1018A20079080319552C562C8C2C0130F007003086
:1018B20003180130F107003003180130F20700303D
:1018C20003180130F307731C672C682C8C2C7008EA
:1018D20083120313A0007108A1007208A20073080A
:1018E200A3000130A400230DA30CA20CA10CA00C98
:1018F200A40B742C2308F3002208F2002108F10043
:101902002008F0007A0A0319872C882C8C2C0130CD
:10191200FF007F08FA077A0A0319902C912C962C63
:101922007A08031D952C962CA42C0030F30000306D
:10193200F2000030F1000030F0007A08031DA22C02
:10194200A32CA42CF8017A1CA72CA82CAA2CF217E1
:10195200AE2C7F30FF007F08F2057A088312031352
:10196200A0000310200CF300F81FB82CB92CBA2CDD
:10197200F31708008312031323088039A8002308F1
:10198200F9007907AE00A21FC72CC82CC92C2E144F
:101992002E080319CD2CCE2CDD2C2E0A031DD22CA1
:1019A200D32CDB2C0030A3000030A2000030A100B9
:1019B2000030A000A217E52C0030A3000030A200E6
:1019C2000030A1000030A00027088039FF007F0806
:1019D200A8062708F9007907AD00A61FF12CF22C02
:1019E200F32C2D142D080319F72CF82C072D2D0A92
:1019F200031DFC2CFD2C052D0030A7000030A60095
:101A02000030A5000030A400A6170F2D0030A7005B
:101A12000030A6000030A5000030A4002D080319F4
:101A2200132D142D192D2E08031D182D192D222DBD
:101A32000030A3000030A2000030A1000030A0005E
:101A4200FF2F2008F00026080A168A1100200A1229
:101A52008A15710883120313B4007008B3003308A7
:101A6200F900FA01FB01FC017C08AC007B08AB0029
:101A72007A08AA007908A9003408F900FA01FB01E2
:101A8200FC017C08B2007B08B1007A08B00079083A
:101A9200AF002108F00025080A168A1100200A1258
:101AA2008A15710883120313B4007008B300330857
:101AB200F900FA01FB01FC017908A9077A08031170
:101AC2000318013E0319662DAA077B0803110318A8
:101AD200013E03196D2DAB077C0803110318013E6B
:101AE2000319742DAC073408F900FA01FB01FC015B
:101AF2007908AF077A0803110318013E0319822DF2
:101B0200B0077B0803110318013E0319892DB107A1
:101B12007C0803110318013E0319902DB207220815
:101B2200F00024080A168A1100200A128A15710888
:101B320083120313B4007008B3003308F900FA01EA
:101B4200FB01FC017908A9077A0803110318013E79
:101B52000319AC2DAA077B0803110318013E0319D0
:101B6200B32DAB077C0803110318013E0319BA2DEC
:101B7200AC073408F900FA01FB01FC017908AF0750
:101B82007A0803110318013E0319C82DB0077B0818
:101B920003110318013E0319CF2DB1077C0803116D
:101BA2000318013E0319D62DB2070830F9000310BD
:101BB200A90DAA0DAB0DAC0DF90BD82D2108F00023
:101BC20024080A168A1100200A128A157108831243
:101BD2000313B4007008B3003308F9003408FA00A4
:101BE200FB01FC017908A9077A0803110318013ED9
:101BF2000319FC2DAA077B0803110318013E0319E0
:101C0200032EAB077C0803110318013E03190A2EA9
:101C1200AC072008F00025080A168A1100200A12D3
:101C22008A15710883120313B4007008B3003308D5
:101C3200F9003408FA00FB01FC017908A9077A08C7
:101C420003110318013E0319272EAA077B0803116B
:101C52000318013E03192E2EAB077C08031103184B
:101C6200013E0319352EAC070830F9000310A90D07
:101C7200AA0DAB0DAC0DF90B372E2008F00024088D
:101C82000A168A1100200A128A1571088312031398
:101C9200B4007008B3003308F9003408FA00FB01FD
:101CA200FC017908A9077A0803110318013E0319F8
:101CB2005B2EAA077B0803110318013E0319622E4B
:101CC200AB077C0803110318013E0319692EAC0708
:101CD2002108F00026080A168A1100200A128A1525
:101CE200710883120313B4007008B3003308F900BB
:101CF2003408FA00FB01FC017908AF077A080311E6
:101D02000318013E0319862EB0077B08031103183E
:101D1200013E03198D2EB1077C0803110318013E01
:101D22000319942EB2072208F00025080A168A1118
:101D320000200A128A15710883120313B400700876
:101D4200B3003308F9003408FA00FB01FC017908FA
:101D5200AF077A0803110318013E0319B12EB00729
:101D62007B0803110318013E0319B82EB1077C0842
:101D720003110318013E0319BF2EB2072208F00017
:101D820026080A168A1100200A128A15710883127F
:101D92000313B4007008B3003308F9003408FA00E2
:101DA200FB01FC0108300310F90DFA0DFB0DFC0DCF
:101DB200FF3E031DD42E7908AF077A0803110318DA
:101DC200013E0319E52EB0077B0803110318013EFB
:101DD2000319EC2EB1077C0803110318013E031905
:101DE200F32EB2072908F9002A08FA002B08FB0093
:101DF2002C08FC0018300310FC0CFB0CFA0CF90C3C
:101E0200FF3E031DFC2E7908AF077A080311031861
:101E1200013E03190D2FB0077B0803110318013E81
:101E22000319142FB1077C0803110318013E03198B
:101E32001B2FB2070830F9000310A90DAA0DAB0D34
:101E4200AC0DF90B1D2F2E082D07F900FA01FA0D22
:101E52007908823EB3007A080318013EFF3EB400BF
:101E62004F2F0130F9000310AF0DB00DB10DB20DBF
:101E7200F90B342FAC1F3E2F3F2F402F2F14013070
:101E8200F9000310A90DAA0DAB0DAC0DF90B422FF1
:101E9200FF30B3070318B40AFF30B407B11F522F43
:101EA200532F322FAD01AC1F572F582F742FFF30F5
:101EB2002905F900FF302A05FA00FF302B05FB0047
:101EC2007F302C05FC007C087B047A04790403191A
:101ED2006B2F6C2F6F2FAD01AD0A742F2F1C722F39
:101EE200732F742F6C2F2D080319782F792FAA2F97
:101EF2000130AF07003003180130B007003003187B
:101F02000130B107003003180130B207321C8A2FAA
:101F12008B2FAA2F2F08F9003008FA003108FB0096
:101F22003208FC000130FD007C0DFC0CFB0CFA0CAD
:101F3200F90CFD0B952F7C08B2007B08B1007A08E2
:101F4200B0007908AF000130B3070318B40A0030BB
:101F5200B4073408803AFF0080307F02031DB32F9C
:101F6200FF303302031CB62FB72FC22F7F308312EC
:101F72000313B2008030B1000030B0000030AF0077
:101F8200F32F831203133408803AFF0080307F025C
:101F9200031DCD2F013033020318D02FD12FDD2F97
:101FA200003083120313B2000030B1000030B000E1
:101FB2000030AF00A801F32F831203133308AE00E1
:101FC200FF30AF05FF30B0057F30B1050030B205FC
:101FD2002E1CEC2FED2FEE2FB1172E08F900031057
:101FE200790CB2002808FF007F08B2043208A3006F
:101FF2003108A2003008A1002F08A0000800F80054
:10200200F401F5017008F200F3017208F60073089A
:10201200F700781C0D280E2814287608F4070318F8
:10202200F50A7708F50701300310F60DF70DFF3EAC
:10203200031D15280310F80C7808031D21282228F7
:102042000A287508F1007408F0000800FB00F90185
:10205200FA017B0884008313000884000A128A11A3
:102062000D200A168A112A3A031D382839286928B0
:102072000130FF007B0884007F0880077608840017
:102082000008FF00023080077F0884000008F90082
:10209200840A0008FA007A287A08F1007908F00028
:1020A2000A30F2000030F3000A168A154A250A1691
:1020B2008A1178087007F90000300318013071079F
:1020C200FA000130FF007B0884007F088313800739
:1020D2007B088400000884000A128A110D200A1667
:1020E2008A11D03EF8000A307802031C79287A2837
:1020F2004D287A08F7007908F600080000308312AC
:1021020003133505BD0000303605BE0080303705AB
:10211200BF007F303805C00040083F043E043D0444
:10212200031D942895289D280030B8000030B70080
:102132000030B6000030B50000303905BD00003077
:102142003A05BE0080303B05BF007F303C05C00031
:1021520040083F043E043D04031DB028B128B928BD
:102162000030BC000030BB000030BA000030B900C3
:10217200B81FBC28BD28E1280030BD000030BE00D9
:102182000030BF008030C0003508BD023608031C95
:10219200360FCC28CD28BE023708031C370FD228B1
:1021A200D328BF023808031C380FD828D928C00208
:1021B2004008B8003F08B7003E08B6003D08B50029
:1021C200BC1FE428E52809290030BD000030BE000C
:1021D2000030BF008030C0003908BD023A08031C3D
:1021E2003A0FF428F528BE023B08031C3B0FFA28DD
:1021F200FB28BF023C08031C3C0F00290129C00236
:102202004008BC003F08BB003E08BA003D08B900C8
:102212008030B8068030BC063C083802031D1B29FA
:102222003B083702031D1B293A083602031D1B29EE
:102232003908350203181E291F29212903102229D2
:1022420003140800F2008312031306107208F00050
:1022520004300310F00CFF3E031D2A2970183229A6
:102262003629831203130615392983120313061123
:102272007208F00005300310F00CFF3E031D3C29EC
:102282007018442948298312031386154B29831297
:10229200031386117208F00006300310F00CFF3EA3
:1022A200031D4E29701856295A2983120313061644
:1022B2005D298312031306127208F000073003101F
:1022C200F00CFF3E031D6029701868296C298312E7
:1022D200031386166F2983120313861286140D3098
:1022E200F100FB30F000F00B7429F10B742979290D
:1022F20083120313861072187F2983298312031312
:10230200061586298312031306117208F0000130A4
:102312000310F00CFF3E031D89297018912995299D
:1023220083120313861598298312031386117208E8
:10233200F00002300310F00CFF3E031D9B297018C1
:10234200A329A729831203130616AA2983120313AA
:1023520006127208F00003300310F00CFF3E031D5A
:10236200AD297018B529B929831203138616BC2921
:1023720083120313861286140D30F100FB30F00035
:10238200F00BC129F10BC129C62983120313861050
:102392000800F2008312031306147208F0000430DE
:1023A2000310F00CFF3E031DD1297018D929DD2935
:1023B200831203130615E029831203130611720810
:1023C200F00005300310F00CFF3E031DE3297018E6
:1023D200EB29EF29831203138615F22983120313C3
:1023E20086117208F00006300310F00CFF3E031D48
:1023F200F5297018FD29012A831203130616042AEF
:102402008312031306127208F00007300310F00C57
:10241200FF3E031D072A70180F2A132A8312031383
:102422008616162A83120313861286140D30F100C3
:10243200FB30F000F00B1B2AF10B1B2A202A83121F
:10244200031386107218262A2A2A831203130615EA
:102452002D2A8312031306117208F00001300310B3
:10246200F00CFF3E031D302A7018382A3C2A8312D2
:10247200031386153F2A8312031386117208F00094
:1024820002300310F00CFF3E031D422A70184A2A44
:102492004E2A831203130616512A831203130612BD
:1024A2007208F00003300310F00CFF3E031D542AA3
:1024B20070185C2A602A831203138616632A831219
:1024C2000313861286140D30F100FB30F000F00B7E
:1024D200682AF10B682A6D2A8312031386100800FA
:1024E20083120313D000831603134D088400831351
:1024F200000884000A128A110D200A168A11253A50
:10250200031D842A852A622B0130FF004D088400B6
:102512007F08800783120313E901EA0103100030E8
:102522000318013083160313DE00FF3083120313F6
:10253200EB00FF30EC00831603134D088400000803
:1025420084000A128A110D200A168A112E3A031DDE
:10255200AB2AAC2AC02A0130FF004D0884007F0854
:1025620080074E08F6004D080A168A1127200A161F
:102572008A11770883120313EC007608EB008316A6
:1025820003134D0884008313000883120313D2003F
:10259200520884000A128A110D200A168A11D100EB
:1025A200DC2A0130FF007F08D207E72A6C30D10015
:1025B200E72AD101E72A51084C3A0319D22A2A3ACA
:1025C2000319D72A0A3A0319D22ADA2A52088400AE
:1025D2000A128A110D200A168A11663A031DF22A7E
:1025E200F32A582B242B831603134E088400000869
:1025F200FF00043080077F08840000088312031361
:10260200CC00840A0008CD00840A0008CE00840AA7
:102612000008CF002C2B831603134E0884000008F9
:10262200FF00043080077F08840000088312031330
:10263200CC00840A0008CD00840A0008CE00840A77
:102642000008CF002C2B51084C3A03190C2B203ACE
:102652000319F42A2C2B831603134D0884008312CA
:1026620003135208013E80004D2B4F08C4004E0850
:10267200C3004D08C2004C08C100520884000A126F
:102682008A110D200A168A11C50050080A168A11ED
:102692008B240A168A117B2B520884000A128A1193
:1026A2000D200A168A11663A0319362B582B01306F
:1026B200FF00831603134D0884007F0883138007ED
:1026C2007B2B4D088400000884000A128A110D2019
:1026D2000A168A1183120313CA00CB014A08F000BA
:1026E2004B08F1005008F2000A168A151B270A1639
:1026F2008A11582B080083160313590883120313F7
:10270200C00083160313580883120313BF008316F5
:102712000313570883120313BE00831603135608CC
:1027220083120313BD003008C0002F08BF002E081B
:10273200BE002D08BD003D08B1003E08B2003F08B2
:10274200B3004008B40017300310B40CB30CB20C41
:10275200B10CFF3E031DA52BFF303105B500003043
:102762003205B6003508813EBB0036080318013E2B
:10277200FF3EBC003C08803AFF0080307F02031D10
:10278200C42B17303B02031CC72BC82BC92B8A2C26
:1027920083120313BC1BCE2BCF2B3F2C3B0AFF0013
:1027A200FF30B100FF30B2007F30B3000030B40020
:1027B200DF2B340DB40CB30CB20CB10CFF0BDA2BC3
:1027C2003408BA003308B9003208B8003108B7003B
:1027D20037083D05B10038083E05B20039083F050B
:1027E200B3003A084005B40034083304320431041B
:1027F200031DFC2BFD2BFE2BC82B3D08B1003E0810
:10280200B2003F08B3004008B4001F300310B40CFC
:10281200B30CB20CB10CFF3E031D072C3408330479
:10282200320431040319162C172C2E2C3708BD073D
:10283200380803110318013E0319202CBE0739087A
:1028420003110318013E0319272CBF073A0803118D
:102852000318013E03192E2CC0073709B1003809AD
:10286200B2003909B3003A09B4003108BD05320893
:10287200BE053308BF053408C005822C3D08B100EF
:102882003E08B2003F08B3004008B4001F300310F6
:10289200B40CB30CB20CB10CFF3E031D482C34082F
:1028A200330432043104031D572C582C612C0030A0
:1028B200C0000030BF000030BE000030BD00822CDE
:1028C2003D08B1003E08B2003F08B3004008B40022
:1028D20001300310B10DB20DB30DB40DFF3E031D57
:1028E2006A2C34083304320431040319792C7A2C0B
:1028F200822CBF30C0008030BF000030BE000030EC
:10290200BD004008B0003F08AF003E08AE003D08E1
:10291200AD00080083160313AF00C2018312031334
:10292200440883160313C800831203134308831653
:102932000313C70083120313420883160313C6004E
:1029420083120313410883160313C5004808831238
:102952000313B80083160313470883120313B70047
:1029620083160313460883120313B6008316031358
:10297200450883120313B5000030BC000030BB00D1
:102982000030BA000030B9000A168A117F200A16F8
:102992008A110318CD2CCE2CE92C83160313C20105
:1029A200C20A4808F3004708F2004608F100450849
:1029B200F0000A128A1501200A168A11730883167A
:1029C2000313C8007208C7007108C6007008C5006A
:1029D20083160313C301C401831203136A08831607
:1029E2000313B30083120313690883160313B2009F
:1029F20042080319FD2CFE2C0E2D4208031D022D48
:102A0200032D082D2B30A6000030A7000C2D2D30F1
:102A1200A6000030A7002608C2004808F3004708B5
:102A2200F2004608F1004508F0000A168A157327DD
:102A32000A168A1170037104031D202D212D582DB1
:102A42008316031342080319272D282D382D420817
:102A5200831203179000FF3083160313B207031883
:102A6200B30AFF30B3070130C3000030C4009C300A
:102A7200F0004308103E0A128A11B7200A168A1182
:102A8200FD3083160313B2070318B30AFF30B307EE
:102A92001030FB003308FD003208FC002F080A1634
:102AA2008A1545260A168A110A128A11D02F831610
:102AB20003134808F3004708F2004608F1004508EE
:102AC200F0000A168A1573270A168A117008710413
:102AD200031D6C2D6F2D0A128A11D228831603133F
:102AE20042080319752D762D862D4208831203178D
:102AF2009000FF3083160313B2070318B30AFF30A6
:102B0200B3070130C3000030C400A030F000430816
:102B1200103E0A128A11B7200A168A11FD30831656
:102B22000313B2070318B30AFF30B3071030FB00D8
:102B32003308FD003208FC002F080A168A154526C4
:102B42000A168A11552D83160317BB01BC010A16FA
:102B52008A158F240A168A1183160317B4000D30C2
:102B620034060319B52DB62DD72D0A3034060319B4
:102B7200BB2DBC2DD72D3C08803AFF0080307F0250
:102B8200031DC52D0C303B020318C82DC92DD72DAE
:102B9200831603173B08BD3E840034088317800068
:102BA2000130BB070318BC0A0030BC070C30831687
:102BB20003173B063C04031DDF2DE02DA82D3B0827
:102BC200BD3E840083178001BB01BC0101300A169F
:102BD2008A1123210A168A1183160317AE01AF0147
:102BE2000030B3000030B2000030B1000030B0005D
:102BF200B501B601831603173508D93E8400831741
:102C02000008F000BD300A168A1510260A168A112D
:102C120070087104031D0E2E0F2E8B2E01308316A9
:102C22000317AE000030AF003508D63E840083178C
:102C32000008F3000030031D8030F4000A168A15E4
:102C42006F250A168A11C0300A168A1123210A1624
:102C52008A117230F3008030F4000A168A156F254B
:102C62000A168A1183160317350883120313E30029
:102C720001300310E30DFF3E031D3A2E0310630DD6
:102C8200CA3E84008317000883160317B000840A23
:102C92000008B100840A0008B200840A0008B300E8
:102CA200923083160313D100831603173308831659
:102CB2000313D50083160317320883160313D400B7
:102CC20083160317310883160313D30083160317E1
:102CD200300883160313D20090300A168A15052590
:102CE2000A168A119030F3000130F4000A168A1590
:102CF2006F250A168A11333083120313E500BB30A5
:102D0200E400DF30E300E30B842EE40B842EE50BBA
:102D1200842EA02E013083160317B5070318B60AB6
:102D22000030B6073608803AFF0080307F02031D6C
:102D32009C2E03303502031C9F2EA02EFB2D8316E2
:102D420003172E082F04031DA72EA82EC62E01300E
:102D52000A168A1123210A168A114530F30080309F
:102D6200F4000A168A156F250A168A113330831267
:102D72000313E500BB30E400DF30E300E30BBF2EBA
:102D8200E40BBF2EE50BBF2EFF2F83120313871810
:102D9200CB2ECC2E552F831603173308F30032089F
:102DA200F2003108F1003008F0003A08F700390863
:102DB200F6003808F5003708F4000A128A1557227F
:102DC2000A168A11730883160317BA007208B9002B
:102DD2007108B8007008B70001300A168A11232161
:102DE2000A168A115F30F3008030F4000A168A1541
:102DF2006F250A168A111A3083120313E5005E301A
:102E0200E4006D30E300E30B042FE40B042FE50B29
:102E1200042F0B2F01300A168A1123210A168A1158
:102E22006B30F3008030F4000A168A156F250A16FB
:102E32008A11923083160313D100831603173A08BE
:102E420083160313D5008316031739088316031359
:102E5200D40083160317380883160313D30083168E
:102E62000317370883160313D2009A300A168A15FD
:102E720005250A168A119A30F3000130F4000A1669
:102E82008A156F250A168A111A3083120313E50078
:102E92005E30E4006D30E300E30B4D2FE40B4D2F69
:102EA200E50B4D2F542FA82D0718582F592FC62E3A
:102EB20001300A168A1123210A168A111030F300F2
:102EC2008030F4000A168A156F250A168A118316B5
:102ED2000317330883120313B8008316031732084B
:102EE20083120313B70083160317310883120313E7
:102EF200B60083160317300883120313B500831636
:102F020003173A0883120313BC0083160317390808
:102F120083120313BB0083160317380883120313AB
:102F2200BA0083160317370883120313B9000A166F
:102F32008A1526250A168A11831203133808831666
:102F42000317BA0083120313370883160317B90055
:102F520083120313360883160317B8008312031370
:102F6200350883160317B7001A3083120313E500DE
:102F72005E30E4006D30E300E30BBD2FE40BBD2FA8
:102F8200E50BBD2FC42F01300A168A1123210A1620
:102F92008A116B30F3008030F4000A168A156F250F
:102FA2000A168A11923083160313D100831603176F
:102FB2003A0883160313D5008316031739088316BC
:102FC2000313D40083160317380883160313D300A0
:102FD20083160317370883160313D200A4300A1688
:102FE2008A1505250A168A11A430F3000130F4006F
:0E2FF2000A168A156F250A168A11452F080047
:10391E00831203138C1E942C952C8F2C1A080800DE
:10392E0064008001840A0406031900340406982CEE
:10393E0083160313071387171F3099002030980042
:10394E0090308312031398000800003400341634AC
:10395E00433400340034703441340034003448347D
:10396E0043348B34973481342B3438341E347E08F0
:10397E008A007F0882000A168A15BE240A168A1546
:10398E008000840A04087D0603190034FF0A031917
:10399E00FE0AC22CF31BD42CD52CD62CE52C700988
:1039AE00F0007109F1007209F2007309F300F00AD8
:1039BE000319F10A0319F20A0319F30A0800023077
:1039CE000A168A1123210A168A1528300A168A1118
:1039DE0023210A168A150C300A168A1123210A167B
:1039EE008A1506300A168A1123210A168A15013005
:1039FE000A168A1123210A168A1508008312031348
:103A0E00D700D230D6005708D800DA01DB01E10129
:103A1E00E201831603135108CF005630D000583000
:103A2E000A168A15E5250A168A15831203135A08F3
:103A3E005707D50055088400831780010800803091
:103A4E0083120313B8063C08F3003B08F2003A0851
:103A5E00F1003908F0003808F7003708F60036088C
:103A6E00F5003508F4000A128A1557220A168A152F
:103A7E00730883120313B8007208B7007108B600FA
:103A8E007008B5000800F401F501701C4F2D502D83
:103A9E00562D7208F4070318F50A7308F50701305E
:103AAE000310F20DF30DFF3E031D572D01300310D1
:103ABE00F10CF00CFF3E031D5E2D70087104031D0A
:103ACE00692D6A2D4C2D7508F1007408F000080060
:103ADE00842D7408FF00730884000A128A110320D3
:103AEE000A168A150A168A11CA210A168A15013073
:103AFE00F3070318F40A0030F40774088312031353
:103B0E00FF00730884000A128A1103200A168A1510
:103B1E00003A031D932D942D702D0800F4007008AB
:103B2E00F6007408F500AC2D7608840083170008A3
:103B3E00F3000130FF007F08F60775088400730854
:103B4E0080000130FF007F08F5070130F1020030E0
:103B5E00031CF203F202710A031DB92D720A031D32
:103B6E00B92DBA2D9B2D080083120313A300A101BA
:103B7E00A201D72D2008F900FA017908F0007A0881
:103B8E00F1007808F2000A168A151B270A168A1504
:103B9E00013083120313A1070318A20A0030A207F3
:103BAE0021082307F9007908840083170008A00074
:103BBE002008031DE32DE42DC12D080083120313ED
:103BCE00D300831603134F0883120313D400FD2D65
:103BDE00543083160313CD005008CE008312031306
:103BEE0053080A168A1171220A168A1583120313B4
:103BFE00540884000A128A110D200A168A15003AFA
:103C0E00031D0A2E0B2EEF2D83160313CF01D001A9
:103C1E000800F4001A2E0130FF007F08F40701306F
:103C2E00FF007F08F007700884000A128A110D2029
:103C3E000A168A15F20074088400831700087206AB
:103C4E00031D2A2E2B2E322E740884000008031D0D
:103C5E00312E322E122E700884000A128A110D2077
:103C6E000A168A15F200740884000008F300720820
:103C7E007302F000F101031CF10308008312031319
:103C8E00A700FD1F4B2E4C2E4E2EFC01FD01A50153
:103C9E00A601662E2030F0000030F10083120313CF
:103CAE002708F2000A168A151B270A168A150130F4
:103CBE0083120313A5070318A60A0030A6072608C9
:103CCE00803AA4007D08803A2402031D702E7C08E1
:103CDE002502031C732E742E512E831203132708F4
:103CEE00F8007B080A168A15BB250A168A150800E5
:103CFE0000307005F80000307105F9008030720553
:103D0E00FA007F307305FB007B087A04790478048F
:103D1E00031D922E932E9B2E0030F3000030F200E6
:103D2E000030F1000030F00000307405F800003073
:103D3E007505F90080307605FA007F307705FB00B7
:103D4E007B087A0479047804031DAE2EAF2EB72EAD
:103D5E000030F7000030F6000030F5000030F400BF
:103D6E0077087306031DC52E76087206031DC52E31
:103D7E0075087106031DC52E740870060319C82E2A
:103D8E00C92ECB2E0310CC2E03140800831603135A
:103D9E0086018717071487140A168A159F240A1698
:103DAE008A150A168A15E6240A168A150130F300BA
:103DBE008030F4000A168A156F250A168A15C0304F
:103DCE000A168A1123210A168A155230F300803002
:103DDE00F4000A168A156F250A168A1533308312D7
:103DEE000313E800BB30E700DF30E600E60BFD2EE4
:103DFE00E70BFD2EE80BFD2E01300A168A1123214A
:103E0E000A168A157630F3008030F4000A168A15E9
:103E1E006F250A168A150A168A11A4250A168A15FE
:103E2E00122F0A128A110028720803191F2F202F31
:103E3E00252F7208031D242F252F2C2F70080A12F0
:103E4E008A11B6200A168A15722F7208093E84004E
:103E5E0083130008F300840A0008F4007308740446
:103E6E0003193A2F3B2F592F7208093E8400000880
:103E7E00F300840A0008F4007208023E8400000871
:103E8E00F500840A0008F6007608803AF7007408F8
:103E9E00803A7702031D552F730875020318582FA9
:103EAE00592F722F7208023E840083130008F3000C
:103EBE007208840000087307F40074088400700808
:103ECE00831780007208023E84000130831380073E
:103EDE00840A0318800A0800831603135D088312F0
:103EEE000313A500831603135C0883120313A400A7
:103EFE00831603135B0883120313A30083160313A5
:103F0E005A0883120313A2007308A5007208A400B6
:103F1E007108A3007008A2002208F4002308F5001F
:103F2E002408F6002508F70017300310F70CF60CDE
:103F3E00F50CF40CFF3E031D9C2FFF307405A00002
:103F4E0000307505A10020082104031DAF2FB02FEE
:103F5E00D32F2208F4002308F5002408F6002508C4
:103F6E00F70001300310F40DF50DF60DF70DFF3EC1
:103F7E00031DB92F7708760475047404031DC82F2A
:103F8E00C92FCE2F0230F0000030F100FF2F03308A
:103F9E00F0000030F100FF2F200A2104031DD82F5E
:103FAE00D92FFB2F2208F4002308F5002408F60071
:103FBE002508F70009300310F40DF50DF60DF70D79
:103FCE00FF3E031DE22F770876047504740403196F
:103FDE00F12FF32F0130F42F0030F800F90178089B
:103FEE00F0007908F100FF2F0430F0000030F100EE
:023FFE000800B9
:02400E007A3FF7
:00000001FF
